:1000000000180020C1000000411800000518000081
:10001000051800000518000005180000051800006C
:100020000518000005180000051800004118000020
:1000300041180000051800002D1C0000FD1C0000E8
:10004000411800004118000041180000411800004C
:10005000411800004118000041180000411800003C
:10006000411800004118000041180000411800002C
:10007000C9180000A1190000791A000041180000F9
:10008000411800004118000041180000411800000C
:1000900041180000411800004118000041180000FC
:1000A000410B0000411800004118000041180000F9
:1000B00041180000411800004118000041180000DC
:1000C000F8B501F0C1FB0821474A484B1A60484A7D
:1000D000484B1A60484A494B1A60494B1A780A4201
:1000E00002D01A780A431A702A22464B46481A70E0
:1000F00000234649464C1A188A4203D2E558043375
:100100001560F8E70021434B434A934201D202C3F2
:10011000FBE70023414A424958589446985004331B
:10012000C02BF9D100210326FF2580248A083D4BEE
:100130009200D2180B002F003340DB009F40106864
:100140000131B84307002000984003003B4313608F
:100150002029EBD16246344B1A608A22334B1A7045
:10016000334B663A5A707C321A709E3A9979114232
:10017000FCD0102299791142FCD10C209A792C499B
:100180000240082AFAD1053A0A713D324A71203AF2
:1001900099791142FCD0402299791142FCD025492D
:1001A000254A11602021224A117014399A790A4097
:1001B0000C2AFBD1214A224B1A60224A224B1A6098
:1001C0000022224B1A60224B07321A60214A224B2E
:1001D0001A6062B600F088FB03F0C6FC01F03AFB3F
:1001E00001F094FAFEE7C046300004F03480044089
:1001F000823F0000388004400100000F3C80044032
:1002000002D0074000E0074020FDFF1FE8FDFF1F70
:10021000A03E0000E8FDFF1FBC00002000F9FF1F0A
:100220000000000000E400E008ED00E0005006409F
:10023000004006400000011044800440C000050555
:10024000048004407FBB000014E000E018E000E000
:1002500010E000E00000202020ED00E0FFFFFFFFA5
:10026000FFFFFFFFFFFFFFFFFFFFFFFFFFFFFFFF9E
:10027000FFFFFFFFFFFFFFFFFFFFFFFFFFFFFFFF8E
:10028000FFFFFFFFFFFFFFFFFFFFFFFFFFFFFFFF7E
:10029000FFFFFFFFFFFFFFFFFFFFFFFFFFFFFFFF6E
:1002A000FFFFFFFFFFFFFFFFFFFFFFFFFFFFFFFF5E
:1002B000FFFFFFFFFFFFFFFFFFFFFFFFFFFFFFFF4E
:1002C000FFFFFFFFFFFFFFFFFFFFFFFFFFFFFFFF3E
:1002D000FFFFFFFFFFFFFFFFFFFFFFFFFFFFFFFF2E
:1002E000FFFFFFFFFFFFFFFFFFFFFFFFFFFFFFFF1E
:1002F000FFFFFFFFFFFFFFFFFFFFFFFFFFFFFFFF0E
:10030000FFFFFFFFFFFFFFFFFFFFFFFFFFFFFFFFFD
:10031000FFFFFFFFFFFFFFFFFFFFFFFFFFFFFFFFED
:10032000FFFFFFFFFFFFFFFFFFFFFFFFFFFFFFFFDD
:10033000FFFFFFFFFFFFFFFFFFFFFFFFFFFFFFFFCD
:10034000FFFFFFFFFFFFFFFFFFFFFFFFFFFFFFFFBD
:10035000FFFFFFFFFFFFFFFFFFFFFFFFFFFFFFFFAD
:10036000FFFFFFFFFFFFFFFFFFFFFFFFFFFFFFFF9D
:10037000FFFFFFFFFFFFFFFFFFFFFFFFFFFFFFFF8D
:10038000FFFFFFFFFFFFFFFFFFFFFFFFFFFFFFFF7D
:10039000FFFFFFFFFFFFFFFFFFFFFFFFFFFFFFFF6D
:1003A000FFFFFFFFFFFFFFFFFFFFFFFFFFFFFFFF5D
:1003B000FFFFFFFFFFFFFFFFFFFFFFFFFFFFFFFF4D
:1003C000FFFFFFFFFFFFFFFFFFFFFFFFFFFFFFFF3D
:1003D000FFFFFFFFFFFFFFFFFFFFFFFFFFFFFFFF2D
:1003E000FFFFFFFFFFFFFFFFFFFFFFFFFFFFFFFF1D
:1003F000FFFFFFFFFFFFFFFFFFFFFFFFFFFFFFFF0D
:10040000FFFFFFFFFFFFFFFFFFFFFFFFDEF9FFFF23
:1004100010B5064C2378002B07D1054B002B02D0DA
:10042000044800E000BF0123237010BDE8FDFF1F5A
:1004300000000000A03E0000084B10B5002B03D0C8
:100440000749084800E000BF07480368002B00D1B7
:1004500010BD064B002BFBD09847F9E700000000C9
:10046000ECFDFF1FA03E0000E8FDFF1F00000000A4
:1004700070B5040008000D0003F0A5FB236802001E
:1004800029005B682000984770BDFFFF054B10B541
:1004900018680121C0B200F0B3F901210D2000F06D
:1004A000AFF910BD2CFDFF1FF7B53E4C00212078A1
:1004B00000F086F93C4B1B681B0101D0013BFDD1CC
:1004C0003A4B1868C0B200F033F901F0D9FF384B4D
:1004D000384D1B6828601B0101D0013BFDD120680D
:1004E0000121C0B200F06CF9334B1B681B0101D035
:1004F000013BFDD12868314901F028FD304F3149D9
:10050000386001F023FD304901F034FE2F4E304CAD
:10051000306030492000FFF7ABFF286803F0D0FAC5
:10052000022502000B000095200001F039F82A494D
:100530002000FFF79DFF386803F0C2FA0095020023
:100540000B00200001F02CF824492000FFF790FF59
:10055000306803F0B5FA009502000B00200001F0AE
:100560001FF8200000F0DCFF01210D2000F028F929
:10057000642000F09FF900210D2000F021F9642093
:1005800000F098F901210D2000F01AF9642000F024
:1005900091F900210D2000F013F9FA20800000F0FD
:1005A00089F9F7BD2CFDFF1F20FDFF1F0CFEFF1F6B
:1005B00024FDFF1F10FEFF1F28FDFF1F0000A03BB2
:1005C00004FEFF1FC520303E5F98CC3D08FEFF1F94
:1005D00038FDFF1FD43B0000F03B0000FD3B000056
:1005E0008023F0B51D4A10681840FCD172B61C4C2F
:1005F0002378002B30D01B4B1F681B4B1A681B4BFA
:10060000BA181E681A4B92191D681A4B52191968AC
:10061000194B52181B68194DD21892B25208184B38
:100620002A4392B21A60174B17491B68174A9C4617
:10063000174B1B6812680F68164963440E68164909
:100640009B180968DB199B195A1893B25B082B4356
:10065000124A9BB21360207062B6F0BD24B0034012
:1006600015FEFF1F38B003403CB0034040B00340CC
:1006700044B0034048B003404CB003400080FFFF4B
:100680002CB0034058B0034064B0034060B0034056
:100690005CB0034068B003406CB0034030B003402E
:1006A0001B4B1C4A19781C4B082901D1002102E080
:1006B0000A2903D12E311160132206E00C2901D141
:1006C000283100E03C21116012221A60134B1A7885
:1006D000134B002A01D0002200E001221A60114BC6
:1006E0001A78114B012A01D880220CE0042A01D883
:1006F000842208E0082A01D8852204E0102A01D8C3
:10070000862200E087221A600122084B1A70704787
:1007100030FDFF1F08B003400CB0034017FEFF1F61
:1007200020B0034031FDFF1F24B0034015FEFF1F22
:10073000F8B503000020272B33D81A4AD45CFF2CCD
:100740002FD0194B1B78834201D0FFF749FF72B6B7
:1007500010274022154B144205D01A68BA431A607C
:100760003F231C4002E01A683A431A600123104EEE
:10077000104D34602B7062B672B68022336813421B
:1007800008D00D4B186800232B7062B60B4B1B78FA
:10079000184106E02B78002BDBD062B600F0E2FFB8
:1007A000EAE7F8BD0F3C000015FEFF1F0CB0034048
:1007B00000B0034016FEFF1F10B0034014FEFF1FE1
:1007C00010B51A2818D80C2358430C4A835810180F
:1007D0001C7D027A224205D0002901D01A710BE05B
:1007E0001A7209E043681A68002902D003210A43FB
:1007F00001E002218A431A6010BDC046383C000067
:10080000F0B51A282FD80C2217004743164CE519CB
:100810006B682600012901D0042911D150433458B6
:100820003018257D027A20202A432275A222520008
:100830001A601A68042901D1024313E0824311E0CF
:1008400038592C7A027DA24302758022002908D0F3
:10085000022902D10422FF3204E00022032901D13F
:10086000812252001A60F0BD383C000072B60C4B79
:100870001A680C4B18680C4B1B6862B65B0104D5F8
:10088000322393429B415B42C018084B9A1A084B93
:100890005A43FA239B005843920D10187047C046E4
:1008A00018E000E018FEFF1F04ED00E07FBB000031
:1008B0005555010070B50400FFF7D8FF0500002C66
:1008C0000FD0FFF7D3FF074B401B984206D9013CDE
:1008D000002C06D0FA239B00ED18F2E700F042FF4F
:1008E000EFE770BDE703000080221E4BD20510B574
:1008F0001A608022002012061A601B4B1B491860E8
:100900001B4B1C4A1960282313601B4A1B4C1360A5
:100910001B4A13601B4A13601B4A13601B4A136077
:10092000092222601A4C20601A4C21601A4C236064
:100930001A4C23601A4C22601A4C20601A4801603D
:100940001A490B601A490B601A4B1A60FFF7A8FE90
:100950003220FFF7AFFF00F0E1FBAF204000FFF7D0
:10096000A9FF10BD00E100E004800340FFBF0000CC
:10097000088003400C800340148003400080034043
:100980001C800340248003402C80034034800340BB
:1009900004900340089003400C90034014900340DF
:1009A0000090034004A0034008A003400CA00340B3
:1009B00014A0034000A003400223F0B50A4A0B4EE6
:1009C0001478C8272343DB00F518686008480578C9
:1009D000002D00D1403F09040F43F75001235D4033
:1009E0005C4005701470F0BD84FEFF1F00F8FF1F0F
:1009F000FCFEFF1F431E10B50020032B0ED872B65D
:100A0000074A99008858002807D044685B008C503A
:100A1000044904885A5A121B5A5262B610BDC04685
:100A200074FEFF1FA8000020431E0020032B09D8DE
:100A300072B6054A9B009B58002B02D001305B68C0
:100A4000FAE762B67047C046C8FEFF1FF8B572B637
:100A50000123174A082594461E00164964465A1E6B
:100A6000A25C2A421AD05F017C589A00002C05D162
:100A7000CB1908305860104BCB5109E03243D200FB
:100A80005458002C0AD18B18083058600B4B8B50EF
:100A90000B4A1378013B137062B608E00133052B53
:100AA000DCD162B60022064B1A7000F0ADFBF8BD37
:100AB000B43D000000F8FF1F88004000C80040005F
:100AC000F2FEFF1F421E10B5032A30D80223800019
:100AD0001843174BC0001B1872B6164CA05C0328B5
:100AE0000BD801F019F916040207052012E00833AB
:100AF00002200FE0083304200CE00F489200145845
:100B00000E4B002C01D1115001E0985841609950D2
:100B10000CE00320A0540A0008325A60C8221807CB
:100B200000D4403A098809040A431A6062B610BD2D
:100B300000F8FF1F30FEFF1FC8FEFF1FD8FEFF1F7B
:100B4000F7B5B64B1C781D000423E4B21C421DD03F
:100B5000B34B1B78002B16D0B24A1378DBB2002BB4
:100B600005D0013BDBB21370002B00D100BEAE4AB2
:100B70001378DBB2002B06D0013BDBB21370002BE5
:100B800001D100F0A9FC0422A44B1A7008222240D3
:100B900000D159E2A54BA64F1B78DBB29C08E400BC
:100BA0001D093C19002D00D0DFE122686368900622
:100BB000000F01380C2800D9D3E101F0B7F89601F5
:100BC0009601D201D201D201D201D201D201AF01EC
:100BD000D201D201D2010D001A68964E5B68964987
:100BE000736000230B600121944832602060944CB4
:100BF00092B22170934C3B61BB610190A24218D824
:100C0000D020C000824200D3E7E081204000824231
:100C100000D1C4E006D8802A00D1A9E0822A00D100
:100C2000ABE0F7E0884B9A4200D1C7E0FF33FF33D7
:100C30001AE08648824200D154E110D888231B0173
:100C40009A4200D18EE080339A4200D0E2E03C002C
:100C50003D00B278724B20341A70A03508E07C4910
:100C60008A4200D1CEE07B4B9A4200D114E1D1E020
:100C700080222368134203D06068083800F0C4FA69
:100C80000834AC42F4D100242500734BE05800280E
:100C900005D04368009300F0B7FA0098F7E76E4B71
:100CA00018516E4BE0506E4BE058002805D0436859
:100CB000009300F0A9FA0098F7E7694B694A1851C8
:100CC000694BE0506B00D052684BE85C0238032857
:100CD00007D801F021F802040204002200E00122FA
:100CE0005A5501350434042DCFD100230124604D21
:100CF0002B70604B6049621EE3188A5C9B001A707F
:100D000008231A4220D000F061FA6301002805D0C0
:100D1000FA1808305060594AFA5003E0F8502B781E
:100D200001332B7000F052FA0122A3001343DB00C1
:100D3000002805D0FA1808305060019AFA5003E0F4
:100D4000F8502B789B182B7002210023A20011432E
:100D5000C9007B5003210A438A400134BB50052C53
:100D6000C7D19AE02E4B464C1B7823700B0095E0C0
:100D7000434C23706370022390E07F22B0880240CE
:100D8000042A47D83E4C9200237063703D4BD21822
:100D9000022312781A4200D180E021707EE07F2386
:100DA000B2881A40042A35D87388002B32D1022029
:100DB0003449920052181178814329E07F23B28888
:100DC0001A40042A26D87388002B23D102202D49EB
:100DD00092005218117801431AE07288B1882A4BA8
:100DE0005C68002C16D01888904209D15888884237
:100DF00006D1120A032A01D123784FE01B894DE066
:100E00000C33EDE7214A1168214A1160B178214A7B
:100E1000117042E00F221B4B1A7063E080200740E4
:100E2000FBFEFF1F85FEFF1FFDFEFF1F90200740FA
:100E300000F8FF1FE8FEFF1F1CFEFF1FC800400058
:100E4000FCFEFF1F810600000203000021200000BD
:100E5000212200002123000074FEFF1F20FEFF1F3F
:100E6000C8FEFF1FA8000020D8FEFF1F30FEFF1F96
:100E7000F2FEFF1F30C80110B43D000088004000A2
:100E8000F3FEFF1FC0200740B83D000018FEFF1F03
:100E9000B80000200CFFFF1F00231C00F5889D42B6
:100EA00000D91D002E00402D00D940262000310021
:100EB000FFF782FDA419AD1B03D12F00402E04D0F3
:100EC00010E04027AF4200D92F0020003900FFF783
:100ED00073FDE419ED1B01D1402F03D1764B1C604B
:100EE000764B1D800122764B3AE07649764A098896
:100EF000914210D100227549985C88540132072A2A
:100F0000FAD10B68862B02D1714B08321A7000217E
:100F10000800FFF751FD6F4B236022E0664F3E68EB
:100F2000002E13D0654B1C882500402C00D940258D
:100F300029003000FFF740FD641B604BA4B21C8009
:100F4000002C01D1402D00D174193C60A0225D4BD2
:100F5000D2001988914204D100225A709A785E4BCF
:100F60001A700122564B1A706AE008226068013D2F
:100F70000838EDB2134037D000F046F95749A800C1
:100F80004258574B002A1CD0566846501100585DF5
:100F90000831616003280BD800F0BEFE0204060889
:100FA000032104E0022102E0052100E0042159555B
:100FB0000821C8230C4200D1403B1288120413437D
:100FC0003DE0585D032808D800F0A6FE3A3A020436
:100FD000002200E001225A5532E008221440621E2D
:100FE000944102345C552BE02268110C8AB20280D5
:100FF00000291ED03B4943804360AB005F583A4E06
:10100000002F01D1585001E0F158486037496D0078
:10101000F0506B5AD2186A5200F0D8F8002802D06B
:101020000830606005E0324A2060137801331370A5
:1010300006E008231C4201D12E4B00E0254B236023
:1010400008222D4B1A707CE5012004421ED0022399
:101050001B49284C0B70294B294E1A70294B1C60D8
:101060009C60294C1A61DC600D249A615E60274BFC
:101070001C70FF23264C2370174C2B702270254ABE
:1010800013709F22244B1A70087013E063B2002B78
:1010900004DA0D221D4B1A7080232B700222144299
:1010A00004D01B490B78DBB20B702A7010231C4252
:1010B00000D02B70F7BDC0461CFEFF1FF0FEFF1FC7
:1010C00094200740E8FEFF1F21200000B000002010
:1010D00085FEFF1FC800400098200740C8FEFF1F84
:1010E00030FEFF1F74FEFF1F20FEFF1FA800002020
:1010F000F2FEFF1F880040008020074084FEFF1F93
:1011000034FEFF1F00F8FF1F88FEFF1FC0200740AE
:10111000882007408C2007408420074010B500F04D
:101120001DFD002211001B4BD15098180832416060
:10113000882AF9D180201849C0020A6802430A604F
:101140001A0A1649D2B20A701A0C1549D2B20A709C
:10115000144A1B0E1370FF23134A00201370134A06
:1011600013491370134A137001220A701249087050
:1011700012490A70124A116899430B0070210B43FF
:10118000136080220F4B52041A6010220E4B1A700B
:1011900010BDC04600F8FF1F348004409C2007406B
:1011A000B0200740B4200740802007408820074037
:1011B000942007401020074000210740842007406A
:1011C00018E400E000E100E00821074070B572B6C5
:1011D0000B4D2C68200000F07DFE0B2802DD62B66E
:1011E00000200CE080231B06C3409C432C6062B6A9
:1011F00048235843034B181800230360436070BD15
:1012000034FDFF1FC0F9FF1F10B504000E48482130
:10121000201A00F095FD0B2814D80C4B1B78002BDE
:1012200007D00B4B1B78002B03D02000FFF70EFCE0
:1012300008E072B680231B06C340064A11680B43C0
:10124000136062B610BDC046C0F9FF1FF2FEFF1F5B
:10125000FBFEFF1F34FDFF1F70B5114D2B68002BE7
:101260000CD0286843885A1CC3181C7A03889A42F9
:1012700012D3FFF7C9FF00232B600EE0094B1B7848
:10128000002B02D10120404208E00320FFF7B2FB0F
:1012900028600028E5D1F5E74280200070BDC046F7
:1012A00008FFFF1FFBFEFF1F10B50D4C2368002B2E
:1012B00003D02268002A0ED103E00A4B1B78002BD2
:1012C00002D10120404209E00320FFF793FB206098
:1012D0000028EED1F5E75388D318187A10BDC04620
:1012E00008FFFF1FFBFEFF1F054B9888054B1A6880
:1012F000002A03D0138852889B1AC0187047C04632
:10130000A800002008FFFF1F10B50A4B1B78002B18
:101310000FD0094C2068002803D0FFF775FF002389
:1013200023600320FFF766FB002802D0FFF76CFF65
:10133000F7E710BDFBFEFF1F08FFFF1F314A012327
:10134000F0B50C00170085B0019002911370039363
:10135000002C53D02C4D2B68002B25D12B4E2C4B21
:101360001B78DBB2002B01D13B7017E00420FFF7A4
:101370005BFB072809D86B461B7B3B70FFF726FFFA
:10138000214B186000280FD13870013E214B002EF0
:1013900002D01A78002A04D001221A70012040429B
:1013A0002EE000F0DFF9DAE700221A4B29681A7004
:1013B00040234A88981A2300844200D90300080079
:1013C00008308018D2184A800022E41A934204D0D0
:1013D000019EB65C86540132F8E7019AD318019356
:1013E0004B883F2B06D9402304200B80FFF76AFB74
:1013F00000232B600522084B1A70A9E702983C7065
:1014000005B0F0BDFEFEFF1F00FFFF1F09750000C5
:10141000FBFEFF1F04FFFF1FFDFEFF1F07B56B460E
:10142000D871073301211800FFF788FF0EBDFFFFB9
:10143000012370B50E4C0F4D23702B68002B10D17B
:101440000D4B1B78002B02D1002020700FE00420F0
:10145000FFF7EAFA0728F7D8FFF7B8FE2860002858
:10146000F2D02B6858884023181A0023237070BDCF
:10147000FEFEFF1F00FFFF1FFBFEFF1FF7B5124B15
:101480001B78002B1FD00126104F114B3C681E709B
:101490000193104D002C09D000262E706388210086
:1014A00023800420FFF70EFB3E6009E0FFF78EFE6D
:1014B000011E04D004202C70FFF704FB00E02E7006
:1014C0000023019A1370F7BDFBFEFF1F00FFFF1FF3
:1014D000FEFEFF1FFDFEFF1F70B50E4B1C78E4B231
:1014E000002C15D10C4D2968002906D04B8804200A
:1014F0000B80FFF7E7FA2C600AE0FFF767FE011E9A
:1015000003D00420FFF7DEFA02E00122034B1A7039
:1015100070BDC046FEFEFF1F00FFFF1FFDFEFF1F48
:1015200037B5022504002A00054901A802F042FB54
:1015300023682A005B6801A9200098473EBDC04689
:101540007C3D0000F0B50D000F2185B09446134A94
:101550006944ACB22F0C574301345443BBB2260C40
:101560001C19A4193B0C240CDB19E3180A245B0892
:101570005C432D1B303501390D701D1EE9D16346CA
:10158000002B02D02D2301390B70CA4304ABD218B3
:1015900003685B68984705B0F0BDC0463333000070
:1015A000F0B51C0089B00EAB1B78019002932100AE
:1015B00023001000150002F0B3F94B49002814D1A4
:1015C0000122660076085242484B2800310002F0A2
:1015D000A7F900280ED10122444B524228003100C5
:1015E00000F05AFC002805D141490198FEF740FF60
:1015F000040076E0E0223F4B12062800210000F0B4
:1016000055FC002801D03C49EFE7E0223B4B120695
:101610002800210000F036FC0028F4D1002200232D
:101620002800210000F02EFC071E03D08023012794
:101630001B06E418002600203149029B9E4207D079
:10164000A022304B120601F09DFB731CDEB2F4E7C2
:1016500002000B002800210000F05AFF02900391C5
:1016600000F056FC3A00010005000198FFF76AFF00
:101670000400002E35D0280002F0EAF902000B0029
:101680000298039901F0F8FD2E2304AA1370321C6E
:101690000F2E00D90F220025D3B2029300221A4B3D
:1016A00001F070FB0F00060000F032FC04AAC0B28B
:1016B000AB18020030325A7002F088F90B000200B9
:1016C0003900300001F0D8FD029B0135AB42E5D175
:1016D0001A00019B01321B68D2B25B6804A9019811
:1016E0009847200009B0F0BD7E3D0000FFFFEF7F6E
:1016F000863D0000FFFFEF41823D0000FFFFEFC18C
:101700000000E03F9999B93F0000244010B5FEF772
:10171000BDFEFEF7C9FE00F025F8FAE710B5FFF7A9
:10172000F3FD10BD10B5FFF7BFFD10BD10B5FFF7FD
:1017300093FD10BD10B5FFF7D7FD10BD10B5FFF735
:101740009DFE10BD10B5FFF773FE10BD10B508006B
:101750001100FFF7F3FD10BD10B50800FFF75EFEA6
:1017600010BD704770B5234C2378002B40D1013356
:101770002370FFF7B9FD002801D0FFF7F2FF00F05A
:1017800093F8002801D000F0C3FA00F0F9F800281F
:1017900001D000F0BEFA00F05FF9002801D000F09F
:1017A000B9FA00232370EFF30583002B20D1EFF368
:1017B000108272B6104D2868002803D00F4C217893
:1017C000002903D0002A13D162B611E0012323704F
:1017D00043692B60002B01D0996101E008490B603F
:1017E000002A00D162B600258368457798472570A6
:1017F00070BDC0460DFFFF1F9C000020A000002010
:101800009800002070B580258026ED02F6000B4C74
:1018100023682B4201D0FFF793F92368334201D0AC
:1018200000F052F823681B0501D500F0B9F82368D1
:10183000DB04ECD500F020F9E9E7C0463480044031
:1018400010B5FFF7DFFFFFFF0022014B1A60704762
:10185000008104407047F8B506000D001700002411
:101860003900300000F0F2FA0B003733DBB20929FF
:1018700001D83031CBB230002B55390000F060FA7E
:10188000061E01D00134EBE72B1958702B005A1BB0
:10189000944206DD1A78295D19702A550133013CFE
:1018A000F5E72800F8BDFFFF054B1878054BC0B2DF
:1018B0001A78D3B2984200D24030C01A7047C0465E
:1018C00091FFFF1F0FFFFF1F30B5234A13799B06BF
:1018D00011D5224BD479187819000130E4B20023D5
:1018E0003F2800DC03001E480078834203D01D48D7
:1018F000C454DBB20B70D1781748C9B24BB2002B7D
:1019000017DA03795BB2002B13DA174B174C1D78EB
:101910002378DBB29D4202D16C23C37009E001330E
:101920003F2B00D900231248C05CDBB2C0B2D0719B
:101930002370402319420ED0117919420BD0002197
:101940000C4B19700C4B1B688B4202D00B49097869
:1019500019722C23D37030BD00A0064091FFFF1FE9
:101960000FFFFF1F50FFFF1F98FFFF1F92FFFF1F7A
:1019700010FFFF1F0EFFFF1F94FFFF1F90FFFF1FB1
:10198000054B1878054BC0B21A78D3B2984200D2F2
:101990004030C01A7047C046040000209AFFFF1F65
:1019A00030B5234A13799B0611D5224BD479187888
:1019B00019000130E4B200233F2800DC03001E4878
:1019C0000078834203D01D48C454DBB20B70D17839
:1019D0001748C9B24BB2002B17DA03795BB2002B60
:1019E00013DA174B174C1D782378DBB29D4202D1D6
:1019F0006C23C37009E00133272B00D90023124860
:101A0000C05CDBB2C0B2D0712370402319420ED04B
:101A1000117919420BD000210C4B19700C4B1B682B
:101A20008B4202D00B49097819722C23D37030BD38
:101A300000B00640040000209AFFFF1FC3FFFF1FF5
:101A40000C000020050000209BFFFF1F99FFFF1FD7
:101A50000800002003000020054B1878054BC0B299
:101A60001A78D3B2984200D24030C01A7047C046AC
:101A7000800000201500002030B52C4A13799B0609
:101A800023D52B4BD479187819000130E4B2002308
:101A90003F2800DC030027480078834203D0264813
:101AA000C454D8B208702549086800280DD02449CC
:101AB0000978C9B28B4201D35B1A01E05B1A40334B
:101AC000272B02DD1F4B1B780371D1781748C9B251
:101AD0004BB2002B17DA03795BB2002B13DA1A4BE7
:101AE000174C1D782378DBB29D4202D16C23C37062
:101AF00009E00133272B00D900231448C05CDBB276
:101B0000C0B2D0712370402319420ED0117919420E
:101B10000BD000210E4B19700E4B1B688B4202D06C
:101B20000D49097819722C23D37030BD00C00640CE
:101B300080000020150000203F0000201000002041
:101B4000810000203E0000208800002016000020B8
:101B500014000020840000207F00002030B585B0F4
:101B600072B670224121154B1A70154A1170154A30
:101B70003239117080221A701A7852B2002AFBDAB8
:101B8000114B186862B6114B984201D80A2358438A
:101B900001AC0A222100FFF75EFE00230C48E15C45
:101BA0000500002905D05A008218013351800A2B04
:101BB000F5D101335B002B7005B030BD0000024051
:101BC0000700024006000240080002407F9698008D
:101BD000D0FDFF1FEFF3108072B643425841C0B2F0
:101BE0007047002800D062B67047FFFF10B5FFF7BE
:101BF000F1FF0C4A1468002C10D063691360002BAD
:101C000002D000229A6101E0074A1360FFF7E9FF62
:101C1000002320006377A3689847E8E7FFF7E1FF18
:101C200010BDC0468C0000209000002010B5FFF7CA
:101C3000DDFF10BD164930B50B68002B02D1836063
:101C4000C36009E004681A68944207D20025121B99
:101C50008360C560D8601A60086016E002681C687E
:101C60009968121B026000290CD00C680B00A2427C
:101C7000F4D28160C968A21AC160D860C168886066
:101C80001A6002E08160C36098600223037530BD72
:101C90009400002070B5174D2C68002C19D02368D3
:101CA000002B02D0013B236013E0A268002A00D081
:101CB000D360002120692A60036821751B68220017
:101CC00098476368002BE7D023602000FFF7B2FF3E
:101CD000E2E7FFF77FFF0022074B1C681A60FFF75F
:101CE00080FF002C05D0A5682000FFF7A3FF2C0083
:101CF000F7E770BD94000020A400002010B5034A4F
:101D0000136801331360FFF7C5FF10BD18FEFF1FF6
:101D1000704770477047FFFF02B471464908490099
:101D2000095C49008E4402BC7047C04603B471464A
:101D3000490840004900095A49008E4403BC7047D5
:101D4000002243088B4274D303098B425FD3030AFA
:101D50008B4244D3030B8B4228D3030C8B420DD30D
:101D6000FF22090212BA030C8B4202D3121209029B
:101D700065D0030B8B4219D300E0090AC30B8B42D9
:101D800001D3CB03C01A5241830B8B4201D38B0387
:101D9000C01A5241430B8B4201D34B03C01A52412C
:101DA000030B8B4201D30B03C01A5241C30A8B426F
:101DB00001D3CB02C01A5241830A8B4201D38B025A
:101DC000C01A5241430A8B4201D34B02C01A5241FE
:101DD000030A8B4201D30B02C01A5241CDD2C30970
:101DE0008B4201D3CB01C01A524183098B4201D3EC
:101DF0008B01C01A524143098B4201D34B01C01AD7
:101E0000524103098B4201D30B01C01A5241C3084E
:101E10008B4201D3CB00C01A524183088B4201D3BD
:101E20008B00C01A524143088B4201D34B00C01AA9
:101E30005241411A00D20146524110467047FFE715
:101E400001B5002000F006F802BDC0460029F7D019
:101E500076E770477047C0468446101C62468C4641
:101E6000191C634600E0C0461FB500F021FF0028A2
:101E700001D40021C8421FBD10B500F075FE4042DC
:101E8000013010BD10B500F013FF002801DB002069
:101E900010BD012010BDC04610B500F009FF00289C
:101EA00001DD002010BD012010BDC04610B500F0BE
:101EB0009BFE002801DC002010BD012010BDC046A3
:101EC00010B500F091FE002801DA002010BD0120BD
:101ED00010BDC0461C2101231B04984201D3000CF5
:101EE00010391B0A984201D3000A08391B0998428D
:101EF00001D30009043902A2105C40187047C046A3
:101F000004030202010101010000000000000000C2
:101F100070B500220C4B04000D00FFF7D1FF002824
:101F200004D12000290001F01BFD70BD064B0022EA
:101F30002000290001F0A0F901F012FD80231B060A
:101F40009C466044F1E7C0460000E041F0B55746CA
:101F50004E4645464300E0B446028846760A1F0EC8
:101F6000C40F002F47D0FF2F25D0002380259A468D
:101F70009946F600ED042E437F3F434642465D02FC
:101F8000D20F5B006D0A1B0E904640D0FF2B39D05C
:101F900080220020ED00D20415437F3BFB1842460F
:101FA0005746591C62408C4607430F2F5CD86F4937
:101FB000BF00C9598F46002E45D108239A46063BDB
:101FC0009946DAE7424602282DD0032800D1C3E023
:101FD000012800D0A2E0002500260240D4B27602FB
:101FE000ED05760A2E43E407264330001CBC9046DC
:101FF0009946A246F0BD002E1AD104239A46033B0F
:102000009946BAE72A00511E8A41901CC6E7012072
:10201000002DC3D02800FFF75DFF431F76309D40A1
:1020200043420020BAE70124FF2514400026D6E7EA
:102030003000FFF74FFF431F9E400023763047429A
:102040009A46994699E70C239A46093B994694E7A4
:1020500080260024F603FF25C1E735004846B2E795
:10206000350022004846AEE72904090C0800370C69
:102070003604360C2C0C7943704367437443060CCA
:1020800064183619B14203D9802149028846474471
:102090000004000C310409188D01681E8541890E69
:1020A0002943350CED19AD010D43290104D5012358
:1020B00069081D4063460D4319007F31002925DD65
:1020C000680704D00F202840042800D004352801D8
:1020D00003D5274980330D401900FE29A3DC0124D4
:1020E000AD016E0A1440CDB279E78020C0030642EC
:1020F00007D0054205D128434602760A4446FF250B
:102100006DE706437602760AFF2568E70124611A27
:102110001B2905DD14400025002660E76346CBE758
:102120002E002023CE40591A8D406B1E9D412E4318
:10213000730704D00F233340042B00D004367301FF
:1021400004D5012401251440002648E70124B601E6
:10215000760A1440002542E780260124F6032E4328
:102160007602760A1440FF2539E7C0460C3E00008F
:10217000FFFFFFF7F8B54A024E0043024400240E69
:10218000C50F9B09360EC90F9209FF2E00D183E0BF
:1021900001204140A01BA9425CD0002800DC95E052
:1021A000002E1CD1002A00D081E05A0704D00F2253
:1021B0001A40042A00D004335A013BD50134FF2CC5
:1021C00000D191E001209B015B0AE4B205405B0273
:1021D000E4055B0AED0723432B431800F8BDFF2CF1
:1021E000E3D08021C9040A431B2800DD90E01600DB
:1021F0002021C640081A8240511E8A4132439B1A50
:102200005A0115D59B019E093000FFF763FE053882
:10221000864084426CDC041B330020200134E34000
:10222000041BA640721E964100243343BDE70D00F7
:102230005A07BCD1DF0801231D40FF2C33D1002FEA
:1022400000D190E08022D20313003B435B025B0A83
:10225000FF24BCE700284FDD002E2ED0FF2CA4D099
:102260008025ED042A431B2800DD97E01600202579
:10227000C640281A8240501E824132439B185A01A0
:10228000D5D50134FF2C6DD001227B481A405B0864
:10229000034013430D0088E7002A00D07AE777E770
:1022A000031EC5D100257B025B0AE4B28FE701382B
:1022B0000028A4D0FF2C97D177E7002A00D174E73B
:1022C00001380028DAD0FF2CCDD16EE7002821D1CB
:1022D000601CC0B2012858DD80279E1AFF043740D9
:1022E0002FD0D61A0D008FE701231D4000236EE783
:1022F000624B241A334058E7002851D1601CC6B203
:10230000012E33DDFF282DD09B185B0804004CE71D
:10231000012274E7002C1AD0FF2E1FD08024E40481
:10232000404223431B2800DD96E01D002024C540C9
:10233000201A8340581E83412B43D31A34000D00CA
:102340005EE7002E00D05FE700250024ABE7002BFE
:1023500044D0C0430028F0D0FF2EE3D11300FF2467
:102360000D0022E70D00FF24002330E7002C5DD193
:10237000002B7DD0002A00D117E79B185A0100D40A
:1023800056E73E4A040013400FE7002C1ED1002BF5
:102390002FD1002A65D013000D0006E701226DE75A
:1023A000002C1FD1002B59D0C04300280BD0FF2E8A
:1023B0004FD01B285EDC1D002024C540201A83401E
:1023C000581E83412B439B18340058E7002B1CD127
:1023D000002A49D013000D00FF24E6E61300340064
:1023E0000D00E2E6FF2E34D08024E4044042234373
:1023F000DFE7002A00D1D8E68027981AFF040740BB
:1024000000D14DE7D31A0D00CFE6FF24002A00D1FA
:10241000CBE68020DB08C003034204D0D20802428E
:1024200001D113000D00DB00FF24BEE6002B10D00D
:10243000FF24002A00D1B8E68020DB08C003034255
:1024400003D0D208024200D11300DB000D00FF24AC
:10245000ABE61300FF24A8E601236EE71300340067
:10246000A3E6002700251EE780270025FF03E9E6F5
:1024700013009AE60123A6E7FFFFFF7DFFFFFFFBA6
:1024800070B5002830D0C317C5185D40C40F2800B0
:10249000FFF720FD9E231B1A962B0DDC9622D21AE5
:1024A00095406A02520AD8B25202C005520AE407A5
:1024B00002432243100070BD992B19DC9922D21AD5
:1024C0009540124A2A40690704D00F210D40042D7F
:1024D00000D00432510103D50C4B1A409F231B1A24
:1024E0009201520AD8B2DFE7002400200022DBE785
:1024F00005222E00121AB921D6402A00C91A8A4094
:10250000551EAA4135001543DBE7C046FFFFFFFB20
:10251000F8B556465F464D464446F0B40F00FD0FF1
:10252000AA4609037C002E005F00450F490A7F0D73
:102530002943C5001803BC46400A570F640DDB0F42
:102540003843D2009A4500D1AAE06646A61B002E69
:1025500000DCFFE06346002B39D10300134300D0B9
:10256000D9E06B0709D00F232B40042B05D02B1D7E
:10257000AB42AD416D4249191D000B0200D482E00F
:10258000CA4B01349C4200D1FEE00A005646C84BBB
:10259000ED081A405007640552020543120B640D02
:1025A000002112030B0D1B056405120B1A4363086F
:1025B000C04CF60714401C436400640834432800F0
:1025C00021003CBC90469946A246AB46F8BDB74BAD
:1025D0009C42C6D080231B041843382E00DDEBE05C
:1025E0001F2E00DD1EE120239B1B9C460300674637
:1025F000BB40984613004746F3403B436746BA400A
:10260000571EBA4113430200F240EB1A9D42B641F5
:102610001D008A1A7642911B0B0231D54A02560AD6
:10262000002E00D1B4E03000FFF754FC0300083B5B
:102630001F2B00DDB5E020222900D21AD1409E4098
:102640000A009D4032439C4200DDB1E01C1B631C2C
:102650001F2B00DDD5E0202114002800C91A8C4072
:10266000D8408D400443DA40681E8541110025435F
:10267000002476E74146314300D134E2310045463B
:102680006B0700D06FE756464807ED08C9080543B9
:10269000864B9C4235D00A036405120B640D7FE71C
:1026A0006346E31A9B46002B00DC8BE06746002F55
:1026B0003CD07E4FBC4200D153E780273F043843D3
:1026C0005B46382B00DCF7E00243501E82410020BD
:1026D000D2B253194218AB4289411D0049428918B0
:1026E0000B02CDD5714B01349C4200D13DE101205C
:1026F0006F4A6B080A4028401843D5070543510824
:102700002FE72B000B4300D1CBE180231B030B43AE
:102710001A03120B44E7013E002E6DD1AE1AB542EA
:102720009B41091A5B42C91A350075E70700174338
:1027300000D116E701235B429C46E3445B46002B35
:1027400000D0E0E0AA18AA429B4109185B42591840
:102750001500C5E7002E75D1661C7605760D012E95
:1027600000DCF3E0AE1AB0464545BF410E1A7F4289
:10277000F61B370200D48FE0551BAA42B641411A1E
:1027800076428E1B9A464BE756460022002507E705
:102790002800FFF79FFB20300300083B1F2B00DCC5
:1027A00049E72A002838824000259C4200DC4DE79A
:1027B0003F49E41A1140D4E60243501E8241D3B28D
:1027C000002222E7002B00D0F3E0631C9C465B054F
:1027D0005B0D012B00DC9FE0344B9C4500D1C3E036
:1027E000AA180918AA42804140424118CD07520850
:1027F000154349086446B4E62C4B9C4200D0ECE6F5
:10280000AFE611001F3CE1400C00202B00D17FE01F
:102810004021CB1A9A4015436A1E95410021254359
:1028200000242DE733000700203BDF403B00202E33
:1028300070D04027BE1BB0400243501E824113435C
:102840000022E2E6002C4FD0184CA44500D1ABE0AA
:102850008024240476422143382E00DDDFE01F2E41
:1028600000DD43E12027BC1BA1460C004F46BC40C5
:10287000A0462C004746F4403C434F46BD406F1EE7
:10288000BD41F1402C43151BAA429241411A5242CC
:10289000891A64469A46BFE641464546314300D010
:1028A000BEE6002600240025F2E6C046FF07000031
:1028B000FFFF7FFFFFFF0F801F2B59DC2027FF1A30
:1028C000BC46070063469F405B46B9461700DF40A1
:1028D000B8464F4643461F4363469A40531E9A41AB
:1028E0005B463A43D840F4E60C002C435CD0F643F8
:1028F000002E55D1551BAA42A441411A6442091B1E
:102900009A46644688E6964FBC4200D0D8E628E650
:10291000002280E700208FE70B002B43002C00D023
:10292000C2E0002B00D101E10300134300D118E6FF
:10293000AB18AB42B6410918764271180A0200D4AE
:1029400009E1884A1D00114064460AE6002C5BD16B
:102950000E002E4300D08AE00100114300D1C2E0F6
:10296000010015009A46FCE56446002100258FE62B
:1029700020235B429C46DC4463460700DF405B4605
:10298000BC46202B00D1ACE040235F46DB1B9840C7
:102990000243501E8241634613431A00002098E60A
:1029A0006F4CA44500D057E70100150064469A46D5
:1029B000D7E5002C39D10C002C436ED0DB43002B23
:1029C0001AD0674CA44568D0382B00DDA4E01F2B3B
:1029D00000DDAEE020240F00E41AA740B9462F0026
:1029E000DF40B846A3464F46444627435C46A540D1
:1029F0006C1EA541D9403D43AD1895429B41091835
:102A00005B42591864466BE60C002C4315D101005B
:102A100011437BD0010015009A46514CA1E50D43AE
:102A2000691E8D410021ECB22DE74D4CA44534D0F8
:102A3000802424045B422143C6E7040014434ED0A3
:102A4000ED084C072C438025C9082D03294208D0E6
:102A5000C6082E4205D1D208410711430C009A4600
:102A60003100620FC900E50011433D4C79E50600D5
:102A7000164300D175E5AE1AB0464545BF410E1A62
:102A80007F42F61B370200D4F4E5551BAA42B6413B
:102A9000411A7642891B9A4663E501001500644697
:102AA0005FE5002200257BE5002B3BD003001343AC
:102AB00015D0ED084B072B438025C9082D0329426B
:102AC00007D0C4082C4204D141070B002100D208D2
:102AD0001343C9005A0F1143DD00214C41E5204C3E
:102AE0003FE5002054E700260025D1E534000F0023
:102AF000203CE7403C00202E2BD04027BE1BB1409D
:102B00000D43691E8D4100212C43BCE68021002627
:102B10000903134C0025BBE50D43691E8D410021BF
:102B2000EDB269E7010015000D4C1AE50100150032
:102B300017E51C000F00203CE7403C00202B0CD088
:102B40004027FB1A99400D43691E8D410021254302
:102B500052E70021D4E71D0092E50021F3E7C046CB
:102B6000FF070000FFFF7FFFF0B55F4656464D466A
:102B70004446F0B41F035C00DB0F9A46194B0E036A
:102B80004D00C90F8046360B6D0D8B4691463F0BAD
:102B9000640D9D4219D0134B9C421BD00123A542CA
:102BA00006D018003CBC90469946A246AB46F0BD04
:102BB000BE42F6D1C845F4D1D34510D0002DF0D196
:102BC000304303005A1E9341EBE7310001230143D8
:102BD000E7D1E0E73A430123002AE2D1DEE7002310
:102BE000DFE7C046FF070000F0B55F4644465646A3
:102BF0004D46F0B41F033C0B2C4F0E034D00A34673
:102C00005C008446360B6D0DC90F9046640DDB0FDA
:102C1000BD422BD0254FBC422ED0002D0ED13043CB
:102C20000700814678427841002C17D15F463A432D
:102C300014D14B460020002B0AD006E0002C02D114
:102C40005846024301D099421AD001234842184302
:102C50003CBC90469946A246AB46F0BD0028F2D057
:102C600058425841012240421043F1E737000743E0
:102C7000D0D002204042EBE75F461743CDD0F8E7C3
:102C8000A542E2DC05DB5E45DFD808D000205E45CA
:102C9000DED248424841012340421843D8E7C445A8
:102CA000D3D80020C445F4D3D2E7C046FF070000C4
:102CB000F0B55F464D4644465646F0B41C03240B1F
:102CC000A4462F4C0F034D005E00C90F80463F0BFA
:102CD0006D0D8B469146760DDB0FA54220D0284C1A
:102CE000A64222D0002D12D1384344424441002E46
:102CF00020D0002C0DD05C42634101245B421C4378
:102D000020003CBC90469946A246AB46F0BD002E42
:102D100017D05B4519D05B465C4201231C43EFE7AB
:102D2000390002240143EBD1D9E761460224114363
:102D3000E6D1D7E761460A43DBD100240028DFD083
:102D4000E9E761460A43E4D1E5E7B54203DD012244
:102D50005C421443D4E7B542CDDB6745DBD809D0EC
:102D600000246745CCD259464C4261410124494276
:102D70000C43C5E7C845CED80024C845F3D3BFE708
:102D8000FF070000F0B55F4656464D464446F0B496
:102D90000D0399464E002B0B87B0070092468046E4
:102DA0009B46760DCC0F002E69D06D4B9E4235D0E0
:102DB0005B468022DD001204430F13432B439B46E6
:102DC000C3009846674B00279C4600236644019346
:102DD0004A4615035000D20F53462D0B400D914625
:102DE00000D176E05E4A90426CD080225B0F1204E4
:102DF00013435C4AED0094461D4353460022DB001A
:102E0000604449463618701C6140029017430F2FEA
:102E100000D9AFE05448BF00C759BF465B461F43C7
:102E200000D088E000239B46984602330827019390
:102E3000CEE74946022A6AD0032A00D109E2012AD4
:102E400000D0BBE111400022002300259046CCB207
:102E500000212D030A0D12052D0B1543434A1B05B6
:102E600015401D436D00E4076D08254340462900C9
:102E700007B03CBC90469946A246AB46F0BD034322
:102E800052D05B46002B00D18AE15846FFF722F86A
:102E900003000B3B1C2B00DD7BE11D22D31A3A0003
:102EA00001005D46DA4008398D4013008F402B4306
:102EB0009B46B8462E4B00279C4600236044464262
:102EC000019385E752462A432CD100250023022294
:102ED00097E752462A4321D0002D00D154E1280023
:102EE000FEF7F8FF03000B3B1C2B00DD46E11D2124
:102EF000CB1A51460200D9405346083A95409340B8
:102F00000D431B4A944660444042002279E7012465
:102F100000220C40124B0025904699E70025002323
:102F200001226EE703226CE700239B46984601339B
:102F3000042701934CE703230C27019348E7002360
:102F40008025984600242D03054B81E75D464346C6
:102F5000019A6FE75D4643462100019A6AE7C04641
:102F6000FF07000001FCFFFF4C3E0000FFFF0F8049
:102F7000F30300004246120C91461A0C9446424656
:102F800017044A461B041B0C5A43604690464A46A7
:102F900042431000039262461C003F0C7A437C437C
:102FA00042440192220C9246019A5244904506D91D
:102FB0008246802040028046C24450460390100C56
:102FC000049048462404240C1204121905922A0C79
:102FD0002D042D0C68432C00824648467C43504308
:102FE0008146200C8046574357444744BA4503D98D
:102FF000802040028046C144380C3F04B846484413
:103000002404240C01900498A044404404905846A1
:10301000000C814658460404200C824607004846AE
:103020005F434C4643436046604364468346504694
:103030004443380C8446E4186444A34203D98023F3
:103040005B029C46E34448463F04230C3F0C2404A7
:10305000E419574668436F4384464D4650465543EE
:103060004243380C814662444A445B44944503D948
:10307000802040028446654403983F0483460498B8
:103080003F0C8446E344C3458041404282461004DD
:1030900084460198674484466744A344BC46A345DC
:1030A000A4419946D44464428742BF41D4458041FB
:1030B000E144A04699459B417F424042C8440743B2
:1030C000120CBA18A045A4415F423B00644223435E
:1030D000D71843467D19DB0D6D021D435B465A022E
:1030E000059B1A43531E9A415B46DB0D1A43434628
:1030F0005B021343EA0107D501225C081340234316
:10310000EA07029E13436D08574AB218002A4BDDA6
:10311000580709D00F201840042805D0181D9842E0
:103120009B415B42ED180300E80104D54F4A15406E
:103130008022D200B2184E48824200DDE7E6012428
:10314000DB08680718436D02530580462D0B5B0DA5
:103150000C407DE6802259461203114208D01542E8
:1031600006D115432D0398462D0B4C46414B6FE677
:103170005D4615432D032D0B3E4B69E60300554676
:10318000283B9D400023BCE65046FEF7A3FE2030BE
:10319000A8E60300283B9F400023BB46984689E6EB
:1031A000FEF798FE203073E60124A61A382E07DDBC
:1031B00000220C4000230025904649E6029EA3E72A
:1031C0001F2E20DC20222C001800921BF04094407F
:1031D00093400443581E83411C43F540630709D0C4
:1031E0000F232340042B05D023001C1D9C42924139
:1031F0005242AD182B021FD5012400220C4001239E
:103200000025904624E61F202C004042821AD4401C
:10321000202E1CD04022961BB5402B43581E8341C4
:103220000720234318400025002809D00F2200253D
:103230001A401C00042AD8D1230068076D022D0B08
:103240000124DB08034398460C40002300E60025D8
:10325000E3E780220124120315432D0398462D0B2A
:103260000C40044BF4E5C046FF030000FFFFFFFEE7
:10327000FE070000FF070000F0B557464E464546E2
:10328000E0B40E001100F20F9246C500420F180381
:1032900037037400400A4E0F7F0A3043CF4E174366
:1032A0005A00640D520DDB0FC900B24200D1E5E0B7
:1032B00001267340A61AB446534500D1AFE0002E54
:1032C00000DC0DE1002A3AD103000B4300D0E4E01A
:1032D0006B0709D00F232B40042B05D02B1DAB42CD
:1032E000AD416D427F191D003B0200D488E0BB4B0D
:1032F00001349C4200D110E13A00B94B51461A40CA
:1033000001235007ED08520264050543120B640DBA
:103310000B400021280012030D0D120B64052D0532
:1033200015436208AF4CDB072C401443640064086B
:103330001C4321001CBC90469946A246F0BDA74BF9
:103340009C42C5D080231B0418436346382B00DD04
:10335000FDE01F2B00DD30E1624620239B1A0200B6
:103360009A40664690460A009940F24046464B1EF7
:1033700099413243114363460200DA40691A8D4293
:103380009B410D00BA1A5B42D71A3B0235D57A022F
:10339000530A98464346002B00D1C4E04046FEF74E
:1033A00099FD0300083B1F2B00DDC5E0202229000A
:1033B000D21A4746D1409F400A009D403A439C4262
:1033C00000DDC0E01C1B631C1F2B00DDE4E020219E
:1033D00014002800C91AD8408C408D400443DA40BC
:1033E000681E854117002543002471E74246634665
:1033F0001A4300D14CE2674645466B0700D069E7A7
:10340000012351467807ED08FA080B40054373493C
:103410008C4238D012036405120B640D79E7002E3C
:1034200000DC9AE0002A47D06C4A944200D14FE772
:103430008022120410436246382A00DC08E101436E
:10344000481E81410022C9B24919D219A942BF417F
:103450000D007F42BF183A0200D442E15F4A0134B6
:10346000944200D14EE101205D4A69083A4028406B
:103470000843D507054357089A4629E706000E4337
:1034800000D017E714E72900114300D1F9E18021AA
:1034900009030A431203120B3BE701235B429846E0
:1034A000C4446346002B72D1691A8D429B413F1A76
:1034B0005B42FF1A0D0068E702000A4300D107E7EC
:1034C000012252429046C4446246002A00D0E6E0FF
:1034D0006918A942B6413F187642F7190D00BAE7BC
:1034E000002E00D080E0621C5205520D012A00DC43
:1034F000F9E06A1A91464D45B6413A1A7642921B56
:103500009046120200D499E04D1BA9428941C71B85
:1035100049427A1A90469A463CE7524601230025D2
:1035200013400022F5E62800FEF7D4FC203003000B
:10353000083B1F2B00DC39E72A0028388240002591
:103540009C4200DC3EE7264FE41A1740C0E60143E8
:10355000481E81410022C9B210E7002E00D0F1E0E0
:10356000621C94465205520D012A00DCA0E01B4A61
:10357000944500D1C5E06918A94292413F185242D2
:10358000D2194908D5070D4357086446A0E6134BE6
:103590009C4200D0D9E69BE611001F3CE1400C00A4
:1035A000202B00D180E04021CB1A9A4015436A1E9F
:1035B00095410027254300241FE763460200203B76
:1035C000DA406346202B71D0402366469B1B98400F
:1035D0000143481E814111430022CFE6FF0700004E
:1035E000FFFF7FFFFFFF0F80002C48D0CA4CA24294
:1035F00000D1A2E07442A1468024240427434C4613
:10360000382C00DDDBE01F2C00DD44E14E46202499
:10361000A41B3E00A640A246B0464C462E00E64003
:10362000B4464646644626435446A5406C1EA54112
:1036300034002C434D46EF400D1B28E04A464346DC
:103640004D461A4300D0A5E6002300240025DEE6FF
:103650001F2A5ADC66462022921B0600964091469D
:10366000B04662460E00D640424616434A46914056
:103670004A1E9141020060463143C240E4E63C00EC
:103680002C435AD0F443A146002C52D14D1BA942E1
:103690008941C71B49427F1A14009A4675E69E4A23
:1036A000944200D0C7E613E600227FE700208FE7B0
:1036B000002C00D0C8E03B002B4300D10FE10300F9
:1036C0000B4300D104E66918A9429B413F185B42B5
:1036D000DF193B0200D41AE1904B0D001F406446F5
:1036E000F6E59A4689E63A002A43002C5CD1002A86
:1036F00075D102000A4300D1CAE007000D009A46C6
:10370000E6E564460022002581E662460600203A8E
:10371000D6406246B046202A00D1B7E04022664635
:10372000921B904001434246481E814111430022B2
:103730008AE6794CA24200D061E707000D00140030
:103740009A46C5E5002C41D13C002C4378D0F44387
:10375000A146002C20D0704CA24271D04C46382C8F
:1037600000DDB2E01F2C00DDBCE02026341BA246A9
:103770003C005646B4404E46A0462C00F440A446B9
:10378000444666463443A4465446A54064466E1EED
:10379000B54125434C46E7406D188D4289413F189D
:1037A0004942CF19140056E6002A2FD102000A43DD
:1037B00000D184E007000D009A46574C88E53D4350
:1037C0006F1EBD41ECB200270D1B60E7524CA242B8
:1037D00036D0744280263604A1463743BEE7020045
:1037E0000A4300D174E56A1A90464545B6413A1A33
:1037F0007642921B9446120200D4F7E54D1BA94273
:103800008941C71B49427F1A9A4661E502000A4373
:103810003AD0ED087C072C438025FA082D032A4274
:1038200008D0C7082F4205D145072C003A009A4618
:10383000C9080C43670FD200E5001743364C47E533
:1038400007000D00140043E53A002A4343D002006C
:103850000A4319D0ED087C072C438025FA082D0374
:103860002A4207D0C6082E4204D147073C00320046
:10387000C9080C43D700620FE50017439A46264C4F
:1038800026E50022002544E5234C21E5002049E7F8
:1038900000230025BBE54C463E00203CE6404C465C
:1038A000B446202C31D040244E46A61BB7403D43A1
:1038B0006C1EA54164462C4300270D1BE7E68022C1
:1038C00000231203144C0025A1E53D436F1EBD41AA
:1038D0000027EDB260E707000D000F4CF8E4070089
:1038E0000D00F5E44E463C00203EF440A0464C4618
:1038F000202C0ED040244E46A41BA7403D436F1EF3
:10390000BD4144460027254346E70027CFE70D0089
:1039100073E50027F2E7C046FF070000FFFF7FFFC7
:1039200070B50E4E0C031D0349005B00240B490DBE
:103930002D0B5B0DB14204D0084900208B4208D00A
:1039400070BD04430120002CFAD1044900208B42B1
:10395000F6D115432800451EA841F1E7FF070000F6
:103960000B0330B5134D1A0B4B005B0DC90F002430
:10397000AB4211DD104CA34210DC802464032243CF
:103980000E4CE41A1F2C0CDD0D48C31ADA4013004C
:103990005C42002900D11C00200030BD094BCC182E
:1039A000FAE7E040084CA44663449A4013000343FE
:1039B000EEE7C046FE0300001D04000033040000D3
:1039C00013040000FFFFFF7FEDFBFFFF70B5002831
:1039D00030D0C317C4185C40C50F2000FEF77AFA38
:1039E000174B184A1B1AD21A1F2A18DD164AD21A68
:1039F0009440002224035B05240B5B0D0021100082
:103A000024030A0D1205240B1443104A1B0514400D
:103A10001C436400ED0764082C43210070BD2100A5
:103A200091400A000B21081AC4405B052403240BB3
:103A30005B0DE3E70025002300240022DEE7C046FB
:103A40001E0400003304000013040000FFFF0F8079
:103A500070B5051E28D0FEF73DFA154B154A1B1A06
:103A6000D21A1F2A16DD2C00134A0025D21A9440C0
:103A70005A052403240B520D002124030B0D240BA3
:103A80001B0523430D4C1205234013435B00280004
:103A9000590870BD0B212C00081AC440954024031E
:103AA0005A05240B520DE7E700220024E4E7C04644
:103AB0001E0400003304000013040000FFFF0F8009
:103AC0004200120E511C4302C9B270B55D0AC40F08
:103AD000012915DDE02189008C466D071B0B62442E
:103AE000002128000D0D2D052B431C4D52052B40A8
:103AF000520813435B00E4075B082343190070BDC1
:103B0000002A15D1002D1FD02800FEF7E3F90A285E
:103B10001DDC0B232A001B1ADA40130002001532A9
:103B200095400F4A1B03121A52051B0B520DD7E783
:103B3000002D06D080221B0B120313436D07094A88
:103B4000CEE7084A0023CBE700220023C8E70300A2
:103B50000B3B9D402B000025E3E7C046FFFF0F8095
:103B600089030000FF0700000E4B70B500251E0002
:103B70000D4CE41AA410A54204D0AB00F3589847AA
:103B80000135F8E700F082F9084B00251E00084CCB
:103B9000E41AA410A54204D0AB00F35898470135AD
:103BA000F8E770BD983E0000983E0000983E000087
:103BB0009C3E0000002310B59A4203D0CC5CC45454
:103BC0000133F9E710BD0023C25C0133002AFBD1A9
:103BD000581E7047526177205369676E616C20569A
:103BE000616C75652028302D31303233293A200040
:103BF000202D20566F6C746167653A2000202D20BF
:103C0000447573742044656E736974793A200005B5
:103C10000E08090D0C06070F0B004417FF050E08D0
:103C2000090D0C06070F0B004417FFFFFFFFFFFFF6
:103C3000FFFFFFFFFF1A1BFF420000F840A00440F7
:103C400001000000420000F844A00440020000000F
:103C5000C00000F800C0044001000000000000F8AF
:103C60000490044002000000000000F808900440A6
:103C700004000000C00000F81CC0044080000000E8
:103C8000C00000F810C0044010000000C00000F8A0
:103C900008C0044004000000C00000F80CC004404C
:103CA00008000000800000F80CB00440080000008C
:103CB000800000F810B0044010000000800000F800
:103CC00018B0044040000000800000F81CB0044020
:103CD00080000000800000F814B0044020000000C4
:103CE000C00000F804C0044002000000800000F89A
:103CF00000B0044001000000400000F800A00440B3
:103D000001000000400000F804A004400200000090
:103D1000400000F80CA0044008000000400000F83B
:103D200008A0044004000000C00000F814C00440D3
:103D300020000000C00000F818C00440400000004F
:103D4000800000F804B0044002000000800000F889
:103D500008B0044004000000020100F850D0044004
:103D600010000000020100F854D0044020000000C0
:103D7000030100F878D00440400000000D0A6E6195
:103D80006E006F766600696E6600FFFF000000003F
:103D900000000000591700004D17000045170000F3
:103DA0003D170000351700002D17000025170000F3
:103DB0001D170000001519150001000048FDFF1F28
:103DC000120000000002000072FDFF1F430000000F
:103DD00000030000CCFDFF1F0000000001030904E8
:103DE0005AFDFF1F0000000002030904B6FDFF1F7B
:103DF0000000000003030904D0FDFF1F00000000C5
:103E0000000000000000000000000000682000002A
:103E1000C61F0000C61F0000C41F00005A2000007B
:103E20005A20000050200000C41F00005A2000004B
:103E3000502000005A200000C41F00006020000035
:103E40006020000060200000EA200000742F0000C5
:103E5000342E0000342E0000322E00004C2F0000C3
:103E60004C2F00003E2F0000322E00004C2F00008F
:103E70003E2F00004C2F0000322E0000542F000077
:103E8000542F0000542F000054310000F8B5C046F4
:0C3E9000F8BC08BC9E46704739040000D6
:043E9C00F8B5C0466F
:103EA0001801000028000000D02500000F000000CD
:103EB0000A040000FFFFFFFF943D00000000000027
:103EC000E8030000000000001201010102000040B0
:103ED000C0168304000201020301180354006500A8
:103EE00065006E00730079006400750069006E0063
:103EF0006F0009024300020100C032090400000102
:103F0000020201000524001001052401010104241E
:103F1000020605240600010705820310004009047B
:103F20000100020A00000007050302400000070527
:103F30008402400000001603550053004200200098
:103F4000530065007200690061006C0004030904FD
:103F50000C03000000000000000000000000000052
:083F6000000000000000000059
:00000001FF
